{
  "_format": "hh-sol-artifact-1",
  "contractName": "Assessment",
  "sourceName": "contracts/Assessment.sol",
  "abi": [
    {
      "inputs": [
        {
          "internalType": "uint256",
          "name": "initBalance",
          "type": "uint256"
        },
        {
          "internalType": "uint256",
          "name": "_pin",
          "type": "uint256"
        }
      ],
      "stateMutability": "payable",
      "type": "constructor"
    },
    {
      "inputs": [
        {
          "internalType": "uint256",
          "name": "balance",
          "type": "uint256"
        },
        {
          "internalType": "uint256",
          "name": "withdrawAmount",
          "type": "uint256"
        }
      ],
      "name": "InsufficientBalance",
      "type": "error"
    },
    {
      "anonymous": false,
      "inputs": [
        {
          "indexed": false,
          "internalType": "uint256",
          "name": "amount",
          "type": "uint256"
        }
      ],
      "name": "Deposit",
      "type": "event"
    },
    {
      "anonymous": false,
      "inputs": [
        {
          "indexed": false,
          "internalType": "uint256",
          "name": "loanAmount",
          "type": "uint256"
        },
        {
          "indexed": false,
          "internalType": "uint256",
          "name": "loanTerm",
          "type": "uint256"
        },
        {
          "indexed": false,
          "internalType": "uint256",
          "name": "monthlyRepayment",
          "type": "uint256"
        }
      ],
      "name": "LoanRequested",
      "type": "event"
    },
    {
      "anonymous": false,
      "inputs": [
        {
          "indexed": false,
          "internalType": "uint256",
          "name": "newPin",
          "type": "uint256"
        }
      ],
      "name": "PinChanged",
      "type": "event"
    },
    {
      "anonymous": false,
      "inputs": [
        {
          "indexed": false,
          "internalType": "uint256",
          "name": "amount",
          "type": "uint256"
        }
      ],
      "name": "Withdraw",
      "type": "event"
    },
    {
      "inputs": [],
      "name": "balance",
      "outputs": [
        {
          "internalType": "uint256",
          "name": "",
          "type": "uint256"
        }
      ],
      "stateMutability": "view",
      "type": "function"
    },
    {
      "inputs": [
        {
          "internalType": "uint256",
          "name": "_newPin",
          "type": "uint256"
        }
      ],
      "name": "changePin",
      "outputs": [],
      "stateMutability": "nonpayable",
      "type": "function"
    },
    {
      "inputs": [
        {
          "internalType": "uint256",
          "name": "_amount",
          "type": "uint256"
        }
      ],
      "name": "deposit",
      "outputs": [],
      "stateMutability": "payable",
      "type": "function"
    },
    {
      "inputs": [],
      "name": "getBalance",
      "outputs": [
        {
          "internalType": "uint256",
          "name": "",
          "type": "uint256"
        }
      ],
      "stateMutability": "view",
      "type": "function"
    },
    {
      "inputs": [],
      "name": "getPin",
      "outputs": [
        {
          "internalType": "uint256",
          "name": "",
          "type": "uint256"
        }
      ],
      "stateMutability": "view",
      "type": "function"
    },
    {
      "inputs": [],
      "name": "loanAmount",
      "outputs": [
        {
          "internalType": "uint256",
          "name": "",
          "type": "uint256"
        }
      ],
      "stateMutability": "view",
      "type": "function"
    },
    {
      "inputs": [],
      "name": "loanTerm",
      "outputs": [
        {
          "internalType": "uint256",
          "name": "",
          "type": "uint256"
        }
      ],
      "stateMutability": "view",
      "type": "function"
    },
    {
      "inputs": [],
      "name": "monthlyRepayment",
      "outputs": [
        {
          "internalType": "uint256",
          "name": "",
          "type": "uint256"
        }
      ],
      "stateMutability": "view",
      "type": "function"
    },
    {
      "inputs": [],
      "name": "owner",
      "outputs": [
        {
          "internalType": "address payable",
          "name": "",
          "type": "address"
        }
      ],
      "stateMutability": "view",
      "type": "function"
    },
    {
      "inputs": [],
      "name": "pin",
      "outputs": [
        {
          "internalType": "uint256",
          "name": "",
          "type": "uint256"
        }
      ],
      "stateMutability": "view",
      "type": "function"
    },
    {
      "inputs": [
        {
          "internalType": "uint256",
          "name": "_requestedLoanAmount",
          "type": "uint256"
        },
        {
          "internalType": "uint256",
          "name": "_loanTermInMonths",
          "type": "uint256"
        }
      ],
      "name": "requestLoan",
      "outputs": [],
      "stateMutability": "nonpayable",
      "type": "function"
    },
    {
      "inputs": [
        {
          "internalType": "uint256",
          "name": "_withdrawAmount",
          "type": "uint256"
        }
      ],
      "name": "withdraw",
      "outputs": [],
      "stateMutability": "nonpayable",
      "type": "function"
    }
  ],
  "bytecode": "0x6080604052604051610daa380380610daa833981810160405281019061002591906100b5565b336000806101000a81548173ffffffffffffffffffffffffffffffffffffffff021916908373ffffffffffffffffffffffffffffffffffffffff160217905550816001819055508060028190555050506100f5565b600080fd5b6000819050919050565b6100928161007f565b811461009d57600080fd5b50565b6000815190506100af81610089565b92915050565b600080604083850312156100cc576100cb61007a565b5b60006100da858286016100a0565b92505060206100eb858286016100a0565b9150509250929050565b610ca6806101046000396000f3fe6080604052600436106100a75760003560e01c8063aa452fa611610064578063aa452fa6146101aa578063b69ef8a8146101d3578063b6b55f25146101fe578063c8c4b43d1461021a578063cf25b09f14610245578063ee73c90a14610270576100a7565b806312065fe0146100ac5780632e1a7d4d146100d75780633577d94e14610100578063527ddea41461012b5780638da5cb5b146101545780639d585f7f1461017f575b600080fd5b3480156100b857600080fd5b506100c161029b565b6040516100ce9190610834565b60405180910390f35b3480156100e357600080fd5b506100fe60048036038101906100f99190610880565b6102a5565b005b34801561010c57600080fd5b506101156103f6565b6040516101229190610834565b60405180910390f35b34801561013757600080fd5b50610152600480360381019061014d9190610880565b6103fc565b005b34801561016057600080fd5b506101696104cb565b60405161017691906108ee565b60405180910390f35b34801561018b57600080fd5b506101946104ef565b6040516101a19190610834565b60405180910390f35b3480156101b657600080fd5b506101d160048036038101906101cc9190610909565b6104f5565b005b3480156101df57600080fd5b506101e861066a565b6040516101f59190610834565b60405180910390f35b61021860048036038101906102139190610880565b610670565b005b34801561022657600080fd5b5061022f610776565b60405161023c9190610834565b60405180910390f35b34801561025157600080fd5b5061025a61080f565b6040516102679190610834565b60405180910390f35b34801561027c57600080fd5b50610285610815565b6040516102929190610834565b60405180910390f35b6000600154905090565b60008054906101000a900473ffffffffffffffffffffffffffffffffffffffff1673ffffffffffffffffffffffffffffffffffffffff163373ffffffffffffffffffffffffffffffffffffffff1614610333576040517f08c379a000000000000000000000000000000000000000000000000000000000815260040161032a906109cc565b60405180910390fd5b6000600154905081600154101561038557600154826040517fcf47918100000000000000000000000000000000000000000000000000000000815260040161037c9291906109ec565b60405180910390fd5b81600160008282546103979190610a44565b9250508190555081816103aa9190610a44565b600154146103bb576103ba610a78565b5b7f5b6b431d4476a211bb7d41c20d1aab9ae2321deee0d20be3d9fc9b1093fa6e3d826040516103ea9190610834565b60405180910390a15050565b60045481565b60008054906101000a900473ffffffffffffffffffffffffffffffffffffffff1673ffffffffffffffffffffffffffffffffffffffff163373ffffffffffffffffffffffffffffffffffffffff161461048a576040517f08c379a0000000000000000000000000000000000000000000000000000000008152600401610481906109cc565b60405180910390fd5b806002819055507f1e4d45ccbe1a8875efcd8a0a491768270b48b792c430f101695c4202c0671d03816040516104c09190610834565b60405180910390a150565b60008054906101000a900473ffffffffffffffffffffffffffffffffffffffff1681565b60035481565b60008054906101000a900473ffffffffffffffffffffffffffffffffffffffff1673ffffffffffffffffffffffffffffffffffffffff163373ffffffffffffffffffffffffffffffffffffffff1614610583576040517f08c379a000000000000000000000000000000000000000000000000000000000815260040161057a906109cc565b60405180910390fd5b600082116105c6576040517f08c379a00000000000000000000000000000000000000000000000000000000081526004016105bd90610b19565b60405180910390fd5b60008111610609576040517f08c379a000000000000000000000000000000000000000000000000000000000815260040161060090610b85565b60405180910390fd5b816003819055508060048190555080826106239190610bd4565b6005819055507f8fafaf94136563adbf04494aaae5ed82af770ebe54e29b215dcdc264079b048a828260055460405161065e93929190610c05565b60405180910390a15050565b60015481565b60008054906101000a900473ffffffffffffffffffffffffffffffffffffffff1673ffffffffffffffffffffffffffffffffffffffff163373ffffffffffffffffffffffffffffffffffffffff16146106fe576040517f08c379a00000000000000000000000000000000000000000000000000000000081526004016106f5906109cc565b60405180910390fd5b6000600154905081600160008282546107179190610c3c565b92505081905550818161072a9190610c3c565b6001541461073b5761073a610a78565b5b7f4d6ce1e535dbade1c23defba91e23b8f791ce5edc0cc320257a2b364e4e384268260405161076a9190610834565b60405180910390a15050565b60008060009054906101000a900473ffffffffffffffffffffffffffffffffffffffff1673ffffffffffffffffffffffffffffffffffffffff163373ffffffffffffffffffffffffffffffffffffffff1614610807576040517f08c379a00000000000000000000000000000000000000000000000000000000081526004016107fe906109cc565b60405180910390fd5b600254905090565b60025481565b60055481565b6000819050919050565b61082e8161081b565b82525050565b60006020820190506108496000830184610825565b92915050565b600080fd5b61085d8161081b565b811461086857600080fd5b50565b60008135905061087a81610854565b92915050565b6000602082840312156108965761089561084f565b5b60006108a48482850161086b565b91505092915050565b600073ffffffffffffffffffffffffffffffffffffffff82169050919050565b60006108d8826108ad565b9050919050565b6108e8816108cd565b82525050565b600060208201905061090360008301846108df565b92915050565b600080604083850312156109205761091f61084f565b5b600061092e8582860161086b565b925050602061093f8582860161086b565b9150509250929050565b600082825260208201905092915050565b7f596f7520617265206e6f7420746865206f776e6572206f66207468697320616360008201527f636f756e74000000000000000000000000000000000000000000000000000000602082015250565b60006109b6602583610949565b91506109c18261095a565b604082019050919050565b600060208201905081810360008301526109e5816109a9565b9050919050565b6000604082019050610a016000830185610825565b610a0e6020830184610825565b9392505050565b7f4e487b7100000000000000000000000000000000000000000000000000000000600052601160045260246000fd5b6000610a4f8261081b565b9150610a5a8361081b565b9250828203905081811115610a7257610a71610a15565b5b92915050565b7f4e487b7100000000000000000000000000000000000000000000000000000000600052600160045260246000fd5b7f4c6f616e20616d6f756e74206d7573742062652067726561746572207468616e60008201527f2030000000000000000000000000000000000000000000000000000000000000602082015250565b6000610b03602283610949565b9150610b0e82610aa7565b604082019050919050565b60006020820190508181036000830152610b3281610af6565b9050919050565b7f4c6f616e207465726d206d7573742062652067726561746572207468616e2030600082015250565b6000610b6f602083610949565b9150610b7a82610b39565b602082019050919050565b60006020820190508181036000830152610b9e81610b62565b9050919050565b7f4e487b7100000000000000000000000000000000000000000000000000000000600052601260045260246000fd5b6000610bdf8261081b565b9150610bea8361081b565b925082610bfa57610bf9610ba5565b5b828204905092915050565b6000606082019050610c1a6000830186610825565b610c276020830185610825565b610c346040830184610825565b949350505050565b6000610c478261081b565b9150610c528361081b565b9250828201905080821115610c6a57610c69610a15565b5b9291505056fea2646970667358221220c1ad62f26f156dbed07f9947331758f9fb16910fbbe117751f65dd3621928f6364736f6c63430008110033",
  "linkReferences": {},
  "deployedLinkReferences": {}
}